{
  "_format": "hh-sol-artifact-1",
  "contractName": "RollVideo",
  "sourceName": "contracts/RollVideo.sol",
  "abi": [
    {
      "inputs": [],
      "stateMutability": "nonpayable",
      "type": "constructor"
    },
    {
      "anonymous": false,
      "inputs": [
        {
          "indexed": true,
          "internalType": "address",
          "name": "owner",
          "type": "address"
        },
        {
          "indexed": true,
          "internalType": "address",
          "name": "approved",
          "type": "address"
        },
        {
          "indexed": true,
          "internalType": "uint256",
          "name": "tokenId",
          "type": "uint256"
        }
      ],
      "name": "Approval",
      "type": "event"
    },
    {
      "anonymous": false,
      "inputs": [
        {
          "indexed": true,
          "internalType": "address",
          "name": "owner",
          "type": "address"
        },
        {
          "indexed": true,
          "internalType": "address",
          "name": "operator",
          "type": "address"
        },
        {
          "indexed": false,
          "internalType": "bool",
          "name": "approved",
          "type": "bool"
        }
      ],
      "name": "ApprovalForAll",
      "type": "event"
    },
    {
      "anonymous": false,
      "inputs": [
        {
          "indexed": true,
          "internalType": "address",
          "name": "previousOwner",
          "type": "address"
        },
        {
          "indexed": true,
          "internalType": "address",
          "name": "newOwner",
          "type": "address"
        }
      ],
      "name": "OwnershipTransferred",
      "type": "event"
    },
    {
      "anonymous": false,
      "inputs": [
        {
          "indexed": true,
          "internalType": "address",
          "name": "from",
          "type": "address"
        },
        {
          "indexed": true,
          "internalType": "address",
          "name": "to",
          "type": "address"
        },
        {
          "indexed": true,
          "internalType": "uint256",
          "name": "tokenId",
          "type": "uint256"
        }
      ],
      "name": "Transfer",
      "type": "event"
    },
    {
      "inputs": [
        {
          "internalType": "uint256",
          "name": "nftId",
          "type": "uint256"
        },
        {
          "internalType": "string",
          "name": "text",
          "type": "string"
        }
      ],
      "name": "addReview",
      "outputs": [],
      "stateMutability": "nonpayable",
      "type": "function"
    },
    {
      "inputs": [
        {
          "internalType": "address",
          "name": "to",
          "type": "address"
        },
        {
          "internalType": "uint256",
          "name": "tokenId",
          "type": "uint256"
        }
      ],
      "name": "approve",
      "outputs": [],
      "stateMutability": "nonpayable",
      "type": "function"
    },
    {
      "inputs": [
        {
          "internalType": "address",
          "name": "owner",
          "type": "address"
        }
      ],
      "name": "balanceOf",
      "outputs": [
        {
          "internalType": "uint256",
          "name": "",
          "type": "uint256"
        }
      ],
      "stateMutability": "view",
      "type": "function"
    },
    {
      "inputs": [
        {
          "internalType": "uint256",
          "name": "tokenId",
          "type": "uint256"
        }
      ],
      "name": "burn",
      "outputs": [],
      "stateMutability": "nonpayable",
      "type": "function"
    },
    {
      "inputs": [
        {
          "internalType": "uint256",
          "name": "tokenId",
          "type": "uint256"
        }
      ],
      "name": "getApproved",
      "outputs": [
        {
          "internalType": "address",
          "name": "",
          "type": "address"
        }
      ],
      "stateMutability": "view",
      "type": "function"
    },
    {
      "inputs": [
        {
          "internalType": "uint256",
          "name": "nftId",
          "type": "uint256"
        }
      ],
      "name": "getLikes",
      "outputs": [
        {
          "internalType": "uint256",
          "name": "",
          "type": "uint256"
        }
      ],
      "stateMutability": "view",
      "type": "function"
    },
    {
      "inputs": [
        {
          "internalType": "uint256",
          "name": "nftId",
          "type": "uint256"
        }
      ],
      "name": "getReviewsByNftId",
      "outputs": [
        {
          "components": [
            {
              "internalType": "address",
              "name": "reviewer",
              "type": "address"
            },
            {
              "internalType": "uint256",
              "name": "nftId",
              "type": "uint256"
            },
            {
              "internalType": "string",
              "name": "text",
              "type": "string"
            },
            {
              "internalType": "uint256",
              "name": "timestamp",
              "type": "uint256"
            }
          ],
          "internalType": "struct RollVideo.Review[]",
          "name": "",
          "type": "tuple[]"
        }
      ],
      "stateMutability": "view",
      "type": "function"
    },
    {
      "inputs": [
        {
          "internalType": "address",
          "name": "owner",
          "type": "address"
        },
        {
          "internalType": "address",
          "name": "operator",
          "type": "address"
        }
      ],
      "name": "isApprovedForAll",
      "outputs": [
        {
          "internalType": "bool",
          "name": "",
          "type": "bool"
        }
      ],
      "stateMutability": "view",
      "type": "function"
    },
    {
      "inputs": [
        {
          "internalType": "uint256",
          "name": "nftId",
          "type": "uint256"
        }
      ],
      "name": "likeNFT",
      "outputs": [],
      "stateMutability": "nonpayable",
      "type": "function"
    },
    {
      "inputs": [],
      "name": "name",
      "outputs": [
        {
          "internalType": "string",
          "name": "",
          "type": "string"
        }
      ],
      "stateMutability": "view",
      "type": "function"
    },
    {
      "inputs": [],
      "name": "owner",
      "outputs": [
        {
          "internalType": "address",
          "name": "",
          "type": "address"
        }
      ],
      "stateMutability": "view",
      "type": "function"
    },
    {
      "inputs": [
        {
          "internalType": "uint256",
          "name": "tokenId",
          "type": "uint256"
        }
      ],
      "name": "ownerOf",
      "outputs": [
        {
          "internalType": "address",
          "name": "",
          "type": "address"
        }
      ],
      "stateMutability": "view",
      "type": "function"
    },
    {
      "inputs": [],
      "name": "renounceOwnership",
      "outputs": [],
      "stateMutability": "nonpayable",
      "type": "function"
    },
    {
      "inputs": [
        {
          "internalType": "address",
          "name": "to",
          "type": "address"
        },
        {
          "internalType": "string",
          "name": "uri",
          "type": "string"
        }
      ],
      "name": "safeMint",
      "outputs": [],
      "stateMutability": "nonpayable",
      "type": "function"
    },
    {
      "inputs": [
        {
          "internalType": "address",
          "name": "from",
          "type": "address"
        },
        {
          "internalType": "address",
          "name": "to",
          "type": "address"
        },
        {
          "internalType": "uint256",
          "name": "tokenId",
          "type": "uint256"
        }
      ],
      "name": "safeTransferFrom",
      "outputs": [],
      "stateMutability": "nonpayable",
      "type": "function"
    },
    {
      "inputs": [
        {
          "internalType": "address",
          "name": "from",
          "type": "address"
        },
        {
          "internalType": "address",
          "name": "to",
          "type": "address"
        },
        {
          "internalType": "uint256",
          "name": "tokenId",
          "type": "uint256"
        },
        {
          "internalType": "bytes",
          "name": "data",
          "type": "bytes"
        }
      ],
      "name": "safeTransferFrom",
      "outputs": [],
      "stateMutability": "nonpayable",
      "type": "function"
    },
    {
      "inputs": [
        {
          "internalType": "address",
          "name": "operator",
          "type": "address"
        },
        {
          "internalType": "bool",
          "name": "approved",
          "type": "bool"
        }
      ],
      "name": "setApprovalForAll",
      "outputs": [],
      "stateMutability": "nonpayable",
      "type": "function"
    },
    {
      "inputs": [
        {
          "internalType": "bytes4",
          "name": "interfaceId",
          "type": "bytes4"
        }
      ],
      "name": "supportsInterface",
      "outputs": [
        {
          "internalType": "bool",
          "name": "",
          "type": "bool"
        }
      ],
      "stateMutability": "view",
      "type": "function"
    },
    {
      "inputs": [],
      "name": "symbol",
      "outputs": [
        {
          "internalType": "string",
          "name": "",
          "type": "string"
        }
      ],
      "stateMutability": "view",
      "type": "function"
    },
    {
      "inputs": [
        {
          "internalType": "uint256",
          "name": "index",
          "type": "uint256"
        }
      ],
      "name": "tokenByIndex",
      "outputs": [
        {
          "internalType": "uint256",
          "name": "",
          "type": "uint256"
        }
      ],
      "stateMutability": "view",
      "type": "function"
    },
    {
      "inputs": [
        {
          "internalType": "address",
          "name": "owner",
          "type": "address"
        },
        {
          "internalType": "uint256",
          "name": "index",
          "type": "uint256"
        }
      ],
      "name": "tokenOfOwnerByIndex",
      "outputs": [
        {
          "internalType": "uint256",
          "name": "",
          "type": "uint256"
        }
      ],
      "stateMutability": "view",
      "type": "function"
    },
    {
      "inputs": [
        {
          "internalType": "uint256",
          "name": "tokenId",
          "type": "uint256"
        }
      ],
      "name": "tokenURI",
      "outputs": [
        {
          "internalType": "string",
          "name": "",
          "type": "string"
        }
      ],
      "stateMutability": "view",
      "type": "function"
    },
    {
      "inputs": [],
      "name": "totalSupply",
      "outputs": [
        {
          "internalType": "uint256",
          "name": "",
          "type": "uint256"
        }
      ],
      "stateMutability": "view",
      "type": "function"
    },
    {
      "inputs": [
        {
          "internalType": "address",
          "name": "from",
          "type": "address"
        },
        {
          "internalType": "address",
          "name": "to",
          "type": "address"
        },
        {
          "internalType": "uint256",
          "name": "tokenId",
          "type": "uint256"
        }
      ],
      "name": "transferFrom",
      "outputs": [],
      "stateMutability": "nonpayable",
      "type": "function"
    },
    {
      "inputs": [
        {
          "internalType": "address",
          "name": "newOwner",
          "type": "address"
        }
      ],
      "name": "transferOwnership",
      "outputs": [],
      "stateMutability": "nonpayable",
      "type": "function"
    }
  ],
  "bytecode": "0x60806040523480156200001157600080fd5b506040805180820182526009815268526f6c6c566964656f60b81b60208083019182528351808501909452600384526229262b60e91b9084015281519192916200005e91600091620000ed565b50805162000074906001906020840190620000ed565b505050620000916200008b6200009760201b60201c565b6200009b565b620001d0565b3390565b600b80546001600160a01b038381166001600160a01b0319831681179093556040519116919082907f8be0079c531659141344cd1fd0a4f28419497f9722a3daafe3b4186f6b6457e090600090a35050565b828054620000fb9062000193565b90600052602060002090601f0160209004810192826200011f57600085556200016a565b82601f106200013a57805160ff19168380011785556200016a565b828001600101855582156200016a579182015b828111156200016a5782518255916020019190600101906200014d565b50620001789291506200017c565b5090565b5b808211156200017857600081556001016200017d565b600181811c90821680620001a857607f821691505b60208210811415620001ca57634e487b7160e01b600052602260045260246000fd5b50919050565b61215e80620001e06000396000f3fe608060405234801561001057600080fd5b50600436106101735760003560e01c80636352211e116100de578063a22cb46511610097578063d204c45e11610071578063d204c45e14610339578063da472a0f1461034c578063e985e9c51461035f578063f2fde38b1461039b57600080fd5b8063a22cb46514610300578063b88d4fde14610313578063c87b56dd1461032657600080fd5b80636352211e1461029957806370a08231146102ac578063715018a6146102bf5780638da5cb5b146102c757806395d89b41146102d8578063a209081e146102e057600080fd5b806323b872dd1161013057806323b872dd146102275780632f745c591461023a57806342842e0e1461024d57806342966c68146102605780634f6ccce7146102735780635bb0c5d61461028657600080fd5b806301ffc9a71461017857806306fdde03146101a0578063081812fc146101b5578063095ea7b3146101e05780630eda7cf6146101f557806318160ddd14610215575b600080fd5b61018b610186366004611b21565b6103ae565b60405190151581526020015b60405180910390f35b6101a86103bf565b6040516101979190611b96565b6101c86101c3366004611ba9565b610451565b6040516001600160a01b039091168152602001610197565b6101f36101ee366004611bde565b610478565b005b610208610203366004611ba9565b610593565b6040516101979190611c08565b6008545b604051908152602001610197565b6101f3610235366004611c9f565b6106c1565b610219610248366004611bde565b6106f3565b6101f361025b366004611c9f565b610789565b6101f361026e366004611ba9565b6107a4565b610219610281366004611ba9565b6107d5565b6101f3610294366004611d87565b610868565b6101c86102a7366004611ba9565b6108ff565b6102196102ba366004611dce565b61095f565b6101f36109e5565b600b546001600160a01b03166101c8565b6101a86109f9565b6102196102ee366004611ba9565b6000908152600e602052604090205490565b6101f361030e366004611de9565b610a08565b6101f3610321366004611e25565b610a17565b6101a8610334366004611ba9565b610a4f565b6101f3610347366004611ea1565b610a5a565b6101f361035a366004611ba9565b610a89565b61018b61036d366004611ed9565b6001600160a01b03918216600090815260056020908152604080832093909416825291909152205460ff1690565b6101f36103a9366004611dce565b610aab565b60006103b982610b21565b92915050565b6060600080546103ce90611f0c565b80601f01602080910402602001604051908101604052809291908181526020018280546103fa90611f0c565b80156104475780601f1061041c57610100808354040283529160200191610447565b820191906000526020600020905b81548152906001019060200180831161042a57829003601f168201915b5050505050905090565b600061045c82610b46565b506000908152600460205260409020546001600160a01b031690565b6000610483826108ff565b9050806001600160a01b0316836001600160a01b031614156104f65760405162461bcd60e51b815260206004820152602160248201527f4552433732313a20617070726f76616c20746f2063757272656e74206f776e656044820152603960f91b60648201526084015b60405180910390fd5b336001600160a01b03821614806105125750610512813361036d565b6105845760405162461bcd60e51b815260206004820152603d60248201527f4552433732313a20617070726f76652063616c6c6572206973206e6f7420746f60448201527f6b656e206f776e6572206f7220617070726f76656420666f7220616c6c00000060648201526084016104ed565b61058e8383610ba5565b505050565b6060600d6000838152602001908152602001600020805480602002602001604051908101604052809291908181526020016000905b828210156106b6576000848152602090819020604080516080810182526004860290920180546001600160a01b031683526001810154938301939093526002830180549293929184019161061b90611f0c565b80601f016020809104026020016040519081016040528092919081815260200182805461064790611f0c565b80156106945780601f1061066957610100808354040283529160200191610694565b820191906000526020600020905b81548152906001019060200180831161067757829003601f168201915b50505050508152602001600382015481525050815260200190600101906105c8565b505050509050919050565b6106cc335b82610c13565b6106e85760405162461bcd60e51b81526004016104ed90611f47565b61058e838383610c92565b60006106fe8361095f565b82106107605760405162461bcd60e51b815260206004820152602b60248201527f455243373231456e756d657261626c653a206f776e657220696e646578206f7560448201526a74206f6620626f756e647360a81b60648201526084016104ed565b506001600160a01b03919091166000908152600660209081526040808320938352929052205490565b61058e83838360405180602001604052806000815250610a17565b6107ad336106c6565b6107c95760405162461bcd60e51b81526004016104ed90611f47565b6107d281610e03565b50565b60006107e060085490565b82106108435760405162461bcd60e51b815260206004820152602c60248201527f455243373231456e756d657261626c653a20676c6f62616c20696e646578206f60448201526b7574206f6620626f756e647360a01b60648201526084016104ed565b6008828154811061085657610856611f94565b90600052602060002001549050919050565b6040805160808101825233815260208082018581528284018581524260608501526000878152600d845294852080546001808201835591875295849020855160049097020180546001600160a01b0319166001600160a01b039097169690961786559151918501919091555180519293849390926108ed926002850192910190611a3c565b50606082015181600301555050505050565b6000818152600260205260408120546001600160a01b0316806103b95760405162461bcd60e51b8152602060048201526018602482015277115490cdcc8c4e881a5b9d985b1a59081d1bdad95b88125160421b60448201526064016104ed565b60006001600160a01b0382166109c95760405162461bcd60e51b815260206004820152602960248201527f4552433732313a2061646472657373207a65726f206973206e6f7420612076616044820152683634b21037bbb732b960b91b60648201526084016104ed565b506001600160a01b031660009081526003602052604090205490565b6109ed610e0c565b6109f76000610e66565b565b6060600180546103ce90611f0c565b610a13338383610eb8565b5050565b610a213383610c13565b610a3d5760405162461bcd60e51b81526004016104ed90611f47565b610a4984848484610f87565b50505050565b60606103b982610fba565b6000610a65600c5490565b9050610a75600c80546001019055565b610a7f83826110c3565b61058e81836110dd565b6000818152600e60205260408120805491610aa383611fc0565b919050555050565b610ab3610e0c565b6001600160a01b038116610b185760405162461bcd60e51b815260206004820152602660248201527f4f776e61626c653a206e6577206f776e657220697320746865207a65726f206160448201526564647265737360d01b60648201526084016104ed565b6107d281610e66565b60006001600160e01b0319821663780e9d6360e01b14806103b957506103b982611177565b6000818152600260205260409020546001600160a01b03166107d25760405162461bcd60e51b8152602060048201526018602482015277115490cdcc8c4e881a5b9d985b1a59081d1bdad95b88125160421b60448201526064016104ed565b600081815260046020526040902080546001600160a01b0319166001600160a01b0384169081179091558190610bda826108ff565b6001600160a01b03167f8c5be1e5ebec7d5bd14f71427d1e84f3dd0314c0f7b2291e5b200ac8c7c3b92560405160405180910390a45050565b600080610c1f836108ff565b9050806001600160a01b0316846001600160a01b03161480610c6657506001600160a01b0380821660009081526005602090815260408083209388168352929052205460ff165b80610c8a5750836001600160a01b0316610c7f84610451565b6001600160a01b0316145b949350505050565b826001600160a01b0316610ca5826108ff565b6001600160a01b031614610ccb5760405162461bcd60e51b81526004016104ed90611fdb565b6001600160a01b038216610d2d5760405162461bcd60e51b8152602060048201526024808201527f4552433732313a207472616e7366657220746f20746865207a65726f206164646044820152637265737360e01b60648201526084016104ed565b610d3a83838360016111c7565b826001600160a01b0316610d4d826108ff565b6001600160a01b031614610d735760405162461bcd60e51b81526004016104ed90611fdb565b600081815260046020908152604080832080546001600160a01b03199081169091556001600160a01b0387811680865260038552838620805460001901905590871680865283862080546001019055868652600290945282852080549092168417909155905184937fddf252ad1be2c89b69c2b068fc378daa952ba7f163c4a11628f55a4df523b3ef91a4505050565b6107d2816111d3565b600b546001600160a01b031633146109f75760405162461bcd60e51b815260206004820181905260248201527f4f776e61626c653a2063616c6c6572206973206e6f7420746865206f776e657260448201526064016104ed565b600b80546001600160a01b038381166001600160a01b0319831681179093556040519116919082907f8be0079c531659141344cd1fd0a4f28419497f9722a3daafe3b4186f6b6457e090600090a35050565b816001600160a01b0316836001600160a01b03161415610f1a5760405162461bcd60e51b815260206004820152601960248201527f4552433732313a20617070726f766520746f2063616c6c65720000000000000060448201526064016104ed565b6001600160a01b03838116600081815260056020908152604080832094871680845294825291829020805460ff191686151590811790915591519182527f17307eab39ab6107e8899845ad3d59bd9653f200f220920489ca2b5937696c31910160405180910390a3505050565b610f92848484610c92565b610f9e84848484611213565b610a495760405162461bcd60e51b81526004016104ed90612020565b6060610fc582610b46565b6000828152600a602052604081208054610fde90611f0c565b80601f016020809104026020016040519081016040528092919081815260200182805461100a90611f0c565b80156110575780601f1061102c57610100808354040283529160200191611057565b820191906000526020600020905b81548152906001019060200180831161103a57829003601f168201915b50505050509050600061107560408051602081019091526000815290565b9050805160001415611088575092915050565b8151156110ba5780826040516020016110a2929190612072565b60405160208183030381529060405292505050919050565b610c8a84611320565b610a13828260405180602001604052806000815250611394565b6000828152600260205260409020546001600160a01b03166111585760405162461bcd60e51b815260206004820152602e60248201527f45524337323155524953746f726167653a2055524920736574206f66206e6f6e60448201526d32bc34b9ba32b73a103a37b5b2b760911b60648201526084016104ed565b6000828152600a60209081526040909120825161058e92840190611a3c565b60006001600160e01b031982166380ac58cd60e01b14806111a857506001600160e01b03198216635b5e139f60e01b145b806103b957506301ffc9a760e01b6001600160e01b03198316146103b9565b610a49848484846113c7565b6111dc816114fb565b6000818152600a6020526040902080546111f590611f0c565b1590506107d2576000818152600a602052604081206107d291611ac0565b60006001600160a01b0384163b1561131557604051630a85bd0160e11b81526001600160a01b0385169063150b7a02906112579033908990889088906004016120a1565b602060405180830381600087803b15801561127157600080fd5b505af19250505080156112a1575060408051601f3d908101601f1916820190925261129e918101906120de565b60015b6112fb573d8080156112cf576040519150601f19603f3d011682016040523d82523d6000602084013e6112d4565b606091505b5080516112f35760405162461bcd60e51b81526004016104ed90612020565b805181602001fd5b6001600160e01b031916630a85bd0160e11b149050610c8a565b506001949350505050565b606061132b82610b46565b600061134260408051602081019091526000815290565b90506000815111611362576040518060200160405280600081525061138d565b8061136c8461159e565b60405160200161137d929190612072565b6040516020818303038152906040525b9392505050565b61139e838361163b565b6113ab6000848484611213565b61058e5760405162461bcd60e51b81526004016104ed90612020565b60018111156114365760405162461bcd60e51b815260206004820152603560248201527f455243373231456e756d657261626c653a20636f6e7365637574697665207472604482015274185b9cd9995c9cc81b9bdd081cdd5c1c1bdc9d1959605a1b60648201526084016104ed565b816001600160a01b0385166114925761148d81600880546000838152600960205260408120829055600182018355919091527ff3f7a9fe364faab93b216da50a3214154f22a0a2b415b23a84c8169e8b636ee30155565b6114b5565b836001600160a01b0316856001600160a01b0316146114b5576114b585826117d4565b6001600160a01b0384166114d1576114cc81611871565b6114f4565b846001600160a01b0316846001600160a01b0316146114f4576114f48482611920565b5050505050565b6000611506826108ff565b90506115168160008460016111c7565b61151f826108ff565b600083815260046020908152604080832080546001600160a01b03199081169091556001600160a01b0385168085526003845282852080546000190190558785526002909352818420805490911690555192935084927fddf252ad1be2c89b69c2b068fc378daa952ba7f163c4a11628f55a4df523b3ef908390a45050565b606060006115ab83611964565b600101905060008167ffffffffffffffff8111156115cb576115cb611cdb565b6040519080825280601f01601f1916602001820160405280156115f5576020820181803683370190505b5090508181016020015b600019016f181899199a1a9b1b9c1cb0b131b232b360811b600a86061a8153600a850494508461162e57611633565b6115ff565b509392505050565b6001600160a01b0382166116915760405162461bcd60e51b815260206004820181905260248201527f4552433732313a206d696e7420746f20746865207a65726f206164647265737360448201526064016104ed565b6000818152600260205260409020546001600160a01b0316156116f65760405162461bcd60e51b815260206004820152601c60248201527f4552433732313a20746f6b656e20616c7265616479206d696e7465640000000060448201526064016104ed565b6117046000838360016111c7565b6000818152600260205260409020546001600160a01b0316156117695760405162461bcd60e51b815260206004820152601c60248201527f4552433732313a20746f6b656e20616c7265616479206d696e7465640000000060448201526064016104ed565b6001600160a01b038216600081815260036020908152604080832080546001019055848352600290915280822080546001600160a01b0319168417905551839291907fddf252ad1be2c89b69c2b068fc378daa952ba7f163c4a11628f55a4df523b3ef908290a45050565b600060016117e18461095f565b6117eb91906120fb565b60008381526007602052604090205490915080821461183e576001600160a01b03841660009081526006602090815260408083208584528252808320548484528184208190558352600790915290208190555b5060009182526007602090815260408084208490556001600160a01b039094168352600681528383209183525290812055565b600854600090611883906001906120fb565b600083815260096020526040812054600880549394509092849081106118ab576118ab611f94565b9060005260206000200154905080600883815481106118cc576118cc611f94565b600091825260208083209091019290925582815260099091526040808220849055858252812055600880548061190457611904612112565b6001900381819060005260206000200160009055905550505050565b600061192b8361095f565b6001600160a01b039093166000908152600660209081526040808320868452825280832085905593825260079052919091209190915550565b60008072184f03e93ff9f4daa797ed6e38ed64bf6a1f0160401b83106119a35772184f03e93ff9f4daa797ed6e38ed64bf6a1f0160401b830492506040015b6d04ee2d6d415b85acef810000000083106119cf576d04ee2d6d415b85acef8100000000830492506020015b662386f26fc1000083106119ed57662386f26fc10000830492506010015b6305f5e1008310611a05576305f5e100830492506008015b6127108310611a1957612710830492506004015b60648310611a2b576064830492506002015b600a83106103b95760010192915050565b828054611a4890611f0c565b90600052602060002090601f016020900481019282611a6a5760008555611ab0565b82601f10611a8357805160ff1916838001178555611ab0565b82800160010185558215611ab0579182015b82811115611ab0578251825591602001919060010190611a95565b50611abc929150611af6565b5090565b508054611acc90611f0c565b6000825580601f10611adc575050565b601f0160209004906000526020600020908101906107d291905b5b80821115611abc5760008155600101611af7565b6001600160e01b0319811681146107d257600080fd5b600060208284031215611b3357600080fd5b813561138d81611b0b565b60005b83811015611b59578181015183820152602001611b41565b83811115610a495750506000910152565b60008151808452611b82816020860160208601611b3e565b601f01601f19169290920160200192915050565b60208152600061138d6020830184611b6a565b600060208284031215611bbb57600080fd5b5035919050565b80356001600160a01b0381168114611bd957600080fd5b919050565b60008060408385031215611bf157600080fd5b611bfa83611bc2565b946020939093013593505050565b60006020808301818452808551808352604092508286019150828160051b87010184880160005b83811015611c9157888303603f19018552815180516001600160a01b03168452878101518885015286810151608088860181905290611c7082870182611b6a565b60609384015196909301959095525094870194925090860190600101611c2f565b509098975050505050505050565b600080600060608486031215611cb457600080fd5b611cbd84611bc2565b9250611ccb60208501611bc2565b9150604084013590509250925092565b634e487b7160e01b600052604160045260246000fd5b600067ffffffffffffffff80841115611d0c57611d0c611cdb565b604051601f8501601f19908116603f01168101908282118183101715611d3457611d34611cdb565b81604052809350858152868686011115611d4d57600080fd5b858560208301376000602087830101525050509392505050565b600082601f830112611d7857600080fd5b61138d83833560208501611cf1565b60008060408385031215611d9a57600080fd5b82359150602083013567ffffffffffffffff811115611db857600080fd5b611dc485828601611d67565b9150509250929050565b600060208284031215611de057600080fd5b61138d82611bc2565b60008060408385031215611dfc57600080fd5b611e0583611bc2565b915060208301358015158114611e1a57600080fd5b809150509250929050565b60008060008060808587031215611e3b57600080fd5b611e4485611bc2565b9350611e5260208601611bc2565b925060408501359150606085013567ffffffffffffffff811115611e7557600080fd5b8501601f81018713611e8657600080fd5b611e9587823560208401611cf1565b91505092959194509250565b60008060408385031215611eb457600080fd5b611ebd83611bc2565b9150602083013567ffffffffffffffff811115611db857600080fd5b60008060408385031215611eec57600080fd5b611ef583611bc2565b9150611f0360208401611bc2565b90509250929050565b600181811c90821680611f2057607f821691505b60208210811415611f4157634e487b7160e01b600052602260045260246000fd5b50919050565b6020808252602d908201527f4552433732313a2063616c6c6572206973206e6f7420746f6b656e206f776e6560408201526c1c881bdc88185c1c1c9bdd9959609a1b606082015260800190565b634e487b7160e01b600052603260045260246000fd5b634e487b7160e01b600052601160045260246000fd5b6000600019821415611fd457611fd4611faa565b5060010190565b60208082526025908201527f4552433732313a207472616e736665722066726f6d20696e636f72726563742060408201526437bbb732b960d91b606082015260800190565b60208082526032908201527f4552433732313a207472616e7366657220746f206e6f6e20455243373231526560408201527131b2b4bb32b91034b6b83632b6b2b73a32b960711b606082015260800190565b60008351612084818460208801611b3e565b835190830190612098818360208801611b3e565b01949350505050565b6001600160a01b03858116825284166020820152604081018390526080606082018190526000906120d490830184611b6a565b9695505050505050565b6000602082840312156120f057600080fd5b815161138d81611b0b565b60008282101561210d5761210d611faa565b500390565b634e487b7160e01b600052603160045260246000fdfea2646970667358221220f41888e2291eae55df442779f4ae5ad873bc76e908b742dada259e5799c09e1364736f6c63430008090033",
  "linkReferences": {},
  "deployedLinkReferences": {}
}